S00C00004C4142312E7372656318
S113000099C00000B6C00000B4C00000B2C0000037
S1130010B0C000008AC10000ACC00000AAC000004B
S1130020A8C00000A6C00000A4C00000A2C0000038
S1130030A0C000009EC000009CC000009AC0000048
S113004098C0000096C0000094C0000092C0000058
S113005090C000008EC000008CC000008AC0000068
S113006088C0000086C0000084C0000082C0000078
S113007080C000007EC000007CC000007AC0000088
S113008078C0000076C0000074C0000072C0000098
S113009071C100006EC000006CC000006AC00000A6
S11300A068C0000066C0000064C0000062C00000B8
S11300B060C000005EC000005CC000005AC00000C8
S11300C058C0000056C0000054C0000052C00000D8
S11300D050C000004EC000004CC000004AC00000E8
S11300E048C0000046C0000044C0000042C00000F8
S11300F040C000003EC000003CC000003AC0000008
S113010038C0000036C0000034C0000032C0000017
S113011030C000002EC000002CC000002AC0000027
S113012028C0000026C0000024C0000022C0000037
S113013020C0000011241FBECFEFD1E8DEBFCDBF29
S113014000E00CBF12E0A0E0B2E0E4EBFAE000E073
S11301500BBF02C007900D92A83EB107D9F722E069
S1130160A8EEB2E001C01D92A13FB207E1F760D052
S11301709FC446CF8BE146D18EE092E053D188E113
S113018092E050D180E492E04DD189E492E04AD1EA
S11301908EE592E047D182E792E044D187E892E08D
S11301A041D189E992E03ED186EA92E03BD188E1EF
S11301B092E038C10895F89480E096E90AD1E9EC18
S11301C0F0E080818068808380E092E09093EE028A
S11301D08093ED02249A2C9A259A2D9A6C98749AFD
S11301E0EC9AEAE6F0E0808182608083808181601D
S11301F080837894089580E484B985E090E020E4D5
S113020025B93FEF41EE54E0315040405040E1F712
S113021000C0000015B83FEF41EE54E031504040BB
S11302205040E1F700C00000019751F714B8089559
S1130230C2DF2FEF80E792E0215080409040E1F749
S113024000C0000097DF2FEF80E792E0215080404C
S11302509040E1F700C0000006E412E00F2EFAEC33
S1130260EF2EF2E0FF2EF02D8091E902813009F0AB
S113027052C08091EA02823321F128F4803359F08C
S1130280813371F043C0843309F434C058F18533A9
S113029009F436C03BC083EB92E02DD16BDF39C04B
S11302A01F930F9315D10F900F90C1E68C2FAAD0F6
S11302B0CF5FCB37D9F71F930F930AD10F900F90CD
S11302C028C01F930F9304D10F900F90C1E48C2F7B
S11302D099D0CF5FCA35D9F71F930F93F9D00F90F8
S11302E00F9017C087E492E006D185DF87E492E09F
S11302F002D10FC0FF92EF92EBD00F900F9009C084
S1130300FF92EF92E5D00F900F9003C083ED92E03F
S1130310F2D01092E9022FEF80E792E02150804062
S11303209040E1F700C000009FCF1F920F920FB6DC
S11303300F9211242F938F939F93EC982FEF81EEBC
S113034094E0215080409040E1F700C0000080918B
S1130350E8028F5F8093E80295B180E1892785B92F
S1130360E49AEC9A9F918F912F910F900FBE0F906A
S11303701F9018951F920F920FB60F9211240BB66F
S11303800F922F933F934F935F936F937F938F932A
S11303909F93AF93BF93EF93FF933CD08093EA0274
S11303A08091EA022FD081E08093E902FF91EF91DE
S11303B0BF91AF919F918F917F916F915F914F9179
S11303C03F912F910F900BBE0F900FBE0F901F9077
S11303D018959C0140E050E060E271EA87E090E00B
S11303E039D0215031093093CD002093CC00E9EC71
S11303F0F0E088E1808386E08093CA008081806891
S113040080830895E8ECF0E0908195FFFDCF809320
S1130410CE000895E8ECF0E080818823ECF7809129
S1130420CE000895CF93DF93EC018881882329F0CF
S11304302196E8DF89918111FCCFDF91CF91089556
S1130440E8ECF0E0908195FFFDCF8093CE0080E052
S113045090E00895052E97FB16F400940FD057FDF5
S113046005D014D007FC02D046F408C0509540953E
S1130470309521953F4F4F4F5F4F0895909580954C
S1130480709561957F4F8F4F9F4F0895A1E21A2E6B
S1130490AA1BBB1BFD010DC0AA1FBB1FEE1FFF1F24
S11304A0A217B307E407F50720F0A21BB30BE40B74
S11304B0F50B661F771F881F991F1A9469F76095BB
S11304C07095809590959B01AC01BD01CF01089575
S11304D0CF93DF93CDB7DEB7AE014A5F5F4FFA012A
S11304E061917191AF018091ED029091EE0233D050
S11304F0DF91CF9108950F931F93CF93DF93E091F2
S1130500ED02F091EE02238121FF1BC08C01D0E0AB
S1130510C0E0F80181918F016091ED027091EE02CB
S1130520DB011896ED91FC911997882331F0199508
S1130530892B79F3DFEFCFEFECCF8AE01995892B84
S113054019F08FEF9FEF02C08D2F9C2FDF91CF9179
S11305501F910F9108952F923F924F925F926F9245
S11305607F928F929F92AF92BF92CF92DF92EF923F
S1130570FF920F931F93CF93DF93CDB7DEB72B97E3
S11305800FB6F894DEBF0FBECDBF6C017B018A01AC
S1130590FC0117821682838181FFBFC1CE010196BF
S11305A03C01F6019381F70193FD859193FF8191BD
S11305B07F01882309F4ADC1853239F493FD859117
S11305C093FF81917F01853221F4B60190E0D6D169
S11305D0E8CF912C212C312CFFE1F315D8F08B328C
S11305E079F038F4803279F08332A1F4232D20613C
S11305F01DC08D3261F0803369F4232D216016C053
S1130600832D8260382EE32DE4603E2E2AC0F32D24
S1130610F8601DC037FC2DC020ED280F2A3040F0B3
S11306208E32B9F436FC75C1232D2064322E19C0E4
S113063036FE06C08AE0989E200D1124922E11C029
S1130640EAE02E9E200D1124222EF32DF0623F2E7F
S113065008C08C3621F4832D8068382E02C0883679
S113066041F4F70193FD859193FF81917F018111FD
S1130670B3CF982F9F7D9554933028F40C5F1F4F70
S11306809FE399830DC0833631F0833771F083354E
S113069009F055C020C0F801808189830E5F1F4F87
S11306A088248394912C530112C02801F2E04F0E48
S11306B0511CF801A080B18036FE03C0692D70E0A2
S11306C002C06FEF7FEFC5014ED14C018201F32DC3
S11306D0FF773F2E15C0280122E0420E511CF8017D
S11306E0A080B18036FE03C0692D70E002C06FEFB8
S11306F07FEFC5012DD14C01F32DF0683F2E82010F
S113070033FC19C0822D90E088169906A0F4B60136
S113071080E290E033D12A94F5CFF50137FC85913E
S113072037FE81915F01B60190E028D121102A940F
S113073021E0821A91088114910479F7E1C084368A
S113074011F0893639F5F80137FE07C060817181EF
S1130750828193810C5F1F4F08C060817181072ED5
S1130760000C880B990B0E5F1F4FF32DFF763F2E65
S113077097FF09C090958095709561957F4F8F4F35
S11307809F4FF0683F2E2AE030E0A30133D1882E3A
S1130790861844C0853731F4232D2F7EB22E2AE0EB
S11307A030E025C0932D997FB92E8F36C1F018F40F
S11307B0883579F0AEC0803719F0883721F0A9C0A8
S11307C0E92FE061BE2EB4FE0DC0FB2DF460BF2EF8
S11307D009C034FE0AC0292F2660B22E06C028E0C4
S11307E030E005C020E130E002C020E132E0F80151
S11307F0B7FE07C060817181828193810C5F1F4FB6
S113080006C06081718180E090E00E5F1F4FA301FC
S1130810F1D0882E8618FB2DFF773F2E36FE0DC0B3
S1130820232D2E7FA22E891458F434FE0BC032FCE3
S113083009C0832D8E7EA82E05C0B82CA32C03C01E
S1130840B82C01C0B92CA4FE0FC0FE01E80DF11DA7
S11308508081803321F49A2D997EA92E09C0A2FEAD
S113086006C0B394B39404C08A2D867809F0B39477
S1130870A3FC10C0A0FE06C0B21480F4280C922C75
S11308809B180DC0B21458F4B60180E290E076D003
S1130890B394F8CFB21418F42B1802C0982C212C5E
S11308A0A4FE0FC0B60180E390E068D0A2FE16C09B
S11308B0A1FC03C088E790E002C088E590E0B6019F
S11308C00CC08A2D867851F0A1FE02C08BE201C0D3
S11308D080E2A7FC8DE2B60190E050D0891430F498
S11308E0B60180E390E04AD09A94F8CF8A94F30159
S11308F0E80DF11D8081B60190E040D08110F6CF63
S1130900222009F44ECEB60180E290E037D02A943A
S1130910F7CFF6018681978102C08FEF9FEF2B9668
S11309200FB6F894DEBF0FBECDBFDF91CF911F91FC
S11309300F91FF90EF90DF90CF90BF90AF909F907A
S11309408F907F906F905F904F903F902F9008957D
S1130950FC010590615070400110D8F78095909586
S11309608E0F9F1F0895FC0161507040019001108B
S1130970D8F7809590958E0F9F1F08950F931F931E
S1130980CF93DF93FB01238121FD03C08FEF9FEF02
S11309902CC022FF16C0468157812481358142171D
S11309A0530744F4A081B1819D012F5F3F4F3183F0
S11309B020838C93268137812F5F3F4F3783268393
S11309C014C08B01EC01FB010084F185E02D199525
S11309D0892BE1F6D80116968D919C911797019673
S11309E017969C938E931697CE01DF91CF911F910A
S11309F00F910895FA01AA27283051F1203181F18D
S1130A00E8946F936E7F6E5F7F4F8F4F9F4FAF4F12
S1130A10B1E03ED0B4E03CD0670F781F891F9A1F25
S1130A20A11D680F791F8A1F911DA11D6A0F711DD9
S1130A30811D911DA11D20D009F468943F912AE0E5
S1130A40269F11243019305D3193DEF6CF010895CD
S1130A50462F4770405D4193B3E00FD0C9F7F6CFFE
S1130A60462F4F70405D4A3318F0495D31FD4052C6
S1130A70419302D0A9F7EACFB4E0A695979587955C
S1130A8077956795BA95C9F700976105710508953B
S1130A909B01AC010A2E06945795479537952795E7
S1130AA0BA95C9F7620F731F841F951FA01D08957F
S1070AB0F894FFCFE4
S1130AB400000003000000002002000000005B307E
S1130AC43B33333B34306D002D2D2D2D2D2D2D2D09
S1130AD42D2D2D2D2D2D2D2D2D2D2D2D2D2D2D2D3E
S1130AE42D2D2D2D2D2D2D2D2D2D2D2D2D0A0D009E
S1130AF44D454E553A200A0D0030202D204B6F6E83
S1130B0465632070726F6772616D750A0D00312020
S1130B142D204D616C612061626563656461200A06
S1130B240D0032202D2056656C6B61206162656373
S1130B34656461200A0D0033202D20426C696B6EBC
S1130B4469204C4544200A0D0034202D20506F7434
S1130B546F6D200A0D0035202D20506F746F6D20A9
S1130B640A0D000D0A204B6F6E65632070726F6767
S1130B7472616D752E2E2E200D0020506F746F6DD2
S1130B840A0D000D0A20537061746E6120766F6C37
S10B0B9462612E2E200D000009
S9030000FC
