S00C00004C4142312E7372656318
S113000099C00000B6C00000B4C00000B2C0000037
S1130010B0C00000AEC00000ACC00000AAC0000028
S1130020A8C00000A6C00000A4C00000A2C0000038
S1130030A0C000009EC000009CC000009AC0000048
S113004098C0000096C0000094C0000092C0000058
S113005090C000008EC000008CC000008AC0000068
S113006088C0000086C0000084C0000082C0000078
S113007080C000007EC000007CC000007AC0000088
S113008078C0000076C0000074C0000072C0000098
S113009070C000006EC000006CC000006AC00000A8
S11300A068C0000066C0000064C0000062C00000B8
S11300B060C000005EC000005CC000005AC00000C8
S11300C058C0000056C0000054C0000052C00000D8
S11300D050C000004EC000004CC000004AC00000E8
S11300E048C0000046C0000044C0000042C00000F8
S11300F040C000003EC000003CC000003AC0000008
S113010038C0000036C0000034C0000032C0000017
S113011030C000002EC000002CC000002AC0000027
S113012028C0000026C0000024C0000022C0000037
S113013020C0000011241FBECFEFD1E8DEBFCDBF29
S113014000E00CBF13E0A0E0B2E0E0EDF9E000E075
S11301500BBF02C007900D92A832B107D9F723E074
S1130160A8E2B3E001C01D92AE32B207E1F70CD0B1
S11301702DC446CF80E096E9CFD080E092E0909302
S11301802B0380932A030895CF93DF93CDB7DEB773
S1130190C45BD1090FB6F894DEBF0FBECDBF1F926A
S11301A06894BB24B3F8BF928EE592E09F938F933B
S11301B01FD1CC24C394CF920F2EFEEFDF2EF02D4F
S11301C0DF9285E792E09F938F9312D189E0EEE06E
S11301D0F2E09E012F5F3F4F7901D90101900D920A
S11301E08A95E1F7FE013A9687E4DF011D928A952C
S11301F0E9F71F920F2EF8ECAF2EF02DAF9289E89D
S113020092E09F938F938E010F5A1F4F1F930F936A
S113021002D1B801C701E1D01F92AF9281E892E008
S11302209F938F930C5E1F4F1F930F93F4D0A2DF05
S1130230BFEF29E638E1B15020403040E1F700C07B
S113024000008CE892E09F938F93D2D08FEF99E6D1
S1130250A8E181509040A040E1F700C000001F9247
S1130260BF928FE992E09F938F93C2D0BFEF29E6AC
S113027038E1B15020403040E1F700C00000CF9297
S1130280DF9287EB92E09F938F93B2D08FEF99E642
S1130290A8E181509040A040E1F700C000001F9207
S11302A082E08F9384EC92E09F938F93A1D00FB65A
S11302B0F894DEBF0FBECDBFFF92EF9283ED92E0C4
S11302C09F938F9395D01F930F938AEF92E09F9300
S11302D08F938ED00FB6F894DEBF0FBECDBF00E073
S11302E010E00F2EF8E1EF2EF3E0FF2EF02D9FEF3C
S11302F0A3E2B4EF9150A040B040E1F700C0000089
S11303000F5F1F4F1F930F93FF92EF9271D00F90C7
S11303100F900F900F90EBCF9C0140E050E060E213
S113032071EA87E090E01BD0215031093093CD0071
S11303302093CC00E9ECF0E088E1808386E08093B0
S1130340CA008081806880830895E8ECF0E09081A1
S113035095FFFDCF8093CE0080E090E00895052EB8
S113036097FB16F400940FD057FD05D014D007FC6A
S113037002D046F408C050954095309521953F4FE2
S11303804F4F5F4F089590958095709561957F4F7D
S11303908F4F9F4F0895A1E21A2EAA1BBB1BFD018C
S11303A00DC0AA1FBB1FEE1FFF1FA217B307E40750
S11303B0F50720F0A21BB30BE40BF50B661F771FA8
S11303C0881F991F1A9469F7609570958095909588
S11303D09B01AC01BD01CF010895FB01DC010D902F
S11303E00020E9F7119701900D920020E1F708959C
S11303F0CF93DF93CDB7DEB7AE014A5F5F4FFA010B
S113040061917191AF0180912A0390912B0331D0B6
S1130410DF91CF9108950F931F93CF93DF93CDB7BF
S1130420DEB72E970FB6F894DEBF0FBECDBF0E8990
S11304301F8986E08C831A8309838FEF9FE79E834D
S11304408D83AE01465E5F4F688D798DCE01019636
S113045010D0EF81F885E00FF11F10822E960FB6B1
S1130460F894DEBF0FBECDBFDF91CF911F910F91E6
S113047008952F923F924F925F926F927F928F9244
S11304809F92AF92BF92CF92DF92EF92FF920F931F
S11304901F93CF93DF93CDB7DEB72B970FB6F894A6
S11304A0DEBF0FBECDBF6C017B018A01FC01178248
S11304B01682838181FFBFC1CE0101963C01F60102
S11304C09381F70193FD859193FF81917F018823A7
S11304D009F4ADC1853239F493FD859193FF81917F
S11304E07F01853221F4B60190E0D6D1E8CF912C7A
S11304F0212C312CFFE1F315D8F08B3279F038F44C
S1130500803279F08332A1F4232D20611DC08D3215
S113051061F0803369F4232D216016C0832D82603D
S1130520382EE32DE4603E2E2AC0F32DF8601DC062
S113053037FC2DC020ED280F2A3040F08E32B9F45C
S113054036FC75C1232D2064322E19C036FE06C038
S11305508AE0989E200D1124922E11C0EAE02E9E6E
S1130560200D1124222EF32DF0623F2E08C08C366C
S113057021F4832D8068382E02C0883641F4F701B7
S113058093FD859193FF81917F018111B3CF982FC2
S11305909F7D9554933028F40C5F1F4F9FE39983FC
S11305A00DC0833631F0833771F0833509F055C0BF
S11305B020C0F801808189830E5F1F4F88248394B3
S11305C0912C530112C02801F2E04F0E511CF80186
S11305D0A080B18036FE03C0692D70E002C06FEFC9
S11305E07FEFC5014ED14C018201F32DFF773F2EE1
S11305F015C0280122E0420E511CF801A080B180F0
S113060036FE03C0692D70E002C06FEF7FEFC501B5
S11306102DD14C01F32DF0683F2E820133FC19C01B
S1130620822D90E088169906A0F4B60180E290E04D
S113063033D12A94F5CFF50137FC859137FE8191AA
S11306405F01B60190E028D121102A9421E0821A9A
S113065091088114910479F7E1C0843611F0893648
S113066039F5F80137FE07C0608171818281938179
S11306700C5F1F4F08C060817181072E000C880B2E
S1130680990B0E5F1F4FF32DFF763F2E97FF09C086
S113069090958095709561957F4F8F4F9F4FF0682F
S11306A03F2E2AE030E0A30133D1882E861844C0BF
S11306B0853731F4232D2F7EB22E2AE030E025C079
S11306C0932D997FB92E8F36C1F018F4883579F0BF
S11306D0AEC0803719F0883721F0A9C0E92FE06156
S11306E0BE2EB4FE0DC0FB2DF460BF2E09C034FE37
S11306F00AC0292F2660B22E06C028E030E005C0CB
S113070020E130E002C020E132E0F801B7FE07C08A
S113071060817181828193810C5F1F4F06C060816B
S1130720718180E090E00E5F1F4FA301F1D0882E0D
S11307308618FB2DFF773F2E36FE0DC0232D2E7F0E
S1130740A22E891458F434FE0BC032FC09C0832D48
S11307508E7EA82E05C0B82CA32C03C0B82C01C0D3
S1130760B92CA4FE0FC0FE01E80DF11D8081803379
S113077021F49A2D997EA92E09C0A2FE06C0B39435
S1130780B39404C08A2D867809F0B394A3FC10C0F6
S1130790A0FE06C0B21480F4280C922C9B180DC045
S11307A0B21458F4B60180E290E076D0B394F8CF56
S11307B0B21418F42B1802C0982C212CA4FE0FC0DC
S11307C0B60180E390E068D0A2FE16C0A1FC03C08D
S11307D088E790E002C088E590E0B6010CC08A2D5D
S11307E0867851F0A1FE02C08BE201C080E2A7FC32
S11307F08DE2B60190E050D0891430F4B60180E364
S113080090E04AD09A94F8CF8A94F301E80DF11D50
S11308108081B60190E040D08110F6CF222009F407
S11308204ECEB60180E290E037D02A94F7CFF6019D
S11308308681978102C08FEF9FEF2B960FB6F894B5
S1130840DEBF0FBECDBFDF91CF911F910F91FF90FF
S1130850EF90DF90CF90BF90AF909F908F907F905C
S11308606F905F904F903F902F900895FC010590FA
S1130870615070400110D8F7809590958E0F9F1F9E
S11308800895FC016150704001900110D8F78095E3
S113089090958E0F9F1F08950F931F93CF93DF930F
S11308A0FB01238121FD03C08FEF9FEF2CC022FFAA
S11308B016C046815781248135814217530744F479
S11308C0A081B1819D012F5F3F4F318320838C93A1
S11308D0268137812F5F3F4F3783268314C08B01D6
S11308E0EC01FB010084F185E02D1995892BE1F6DB
S11308F0D80116968D919C911797019617969C9303
S11309008E931697CE01DF91CF911F910F91089589
S1130910FA01AA27283051F1203181F1E8946F932C
S11309206E7F6E5F7F4F8F4F9F4FAF4FB1E03ED0D2
S1130930B4E03CD0670F781F891F9A1FA11D680F70
S1130940791F8A1F911DA11D6A0F711D811D911DA3
S1130950A11D20D009F468943F912AE0269F112418
S11309603019305D3193DEF6CF010895462F47707C
S1130970405D4193B3E00FD0C9F7F6CF462F4F70D7
S1130980405D4A3318F0495D31FD4052419302D035
S1130990A9F7EACFB4E0A6959795879577956795DB
S11309A0BA95C9F700976105710508959B01AC01DB
S11309B00A2E06945795479537952795BA95C9F702
S11309C0620F731F841F951FA01D0895F894FFCF15
S11309D00000000300000000A50100000000486FB3
S11309E0646E6F74613D00000000000000000000B0
S11309F000000000000000000000000000000000F3
S1130A0000000000000000000000000000000000E2
S1130A1000000000000000000000000000000000D2
S1130A20000000000000000000000000000056610B
S1130A306C7565206F66207661726961626C653AD7
S1130A402025640A00536F756365743A2025750A7E
S1130A5000486F646E6F74613D25640048656C6C7A
S1130A606F2C204920616D20686572650A0D00565F
S1130A70616C7565206F66207661726961626C6570
S1130A803A2025640A0D00536F756365743A202576
S1130A90750A0D005679736C6564656B3A2025649C
S1130AA00A0D005679736C6564656B20706F6D6F09
S1130AB06369207374726361742061207370726956
S1130AC06E74663A2025730A0D005679736C65645A
S1130AD0656B20706F6D6F636920737072696E74DB
S1130AE0663A2025730A0D00546573742078203DFE
S10B0AF0202564200A0D00001A
S9030000FC
