:100000001AC1000038C1000036C1000034C1000030
:1000100032C10000CCC200002EC100002CC1000083
:100020002AC1000028C1000026C1000024C1000030
:1000300022C1000020C100001EC100001CC1000040
:100040001AC1000018C1000016C1000014C1000050
:1000500012C1000010C100000EC100000CC1000060
:100060000AC1000008C1000006C1000004C1000070
:1000700002C1000000C10000FEC00000FCC0000082
:10008000FAC00000F8C00000F6C00000F4C0000094
:10009000B9C20000F0C00000EEC00000ECC00000DB
:1000A000EAC00000E8C00000E6C00000E4C00000B4
:1000B000E2C00000E0C00000DEC00000DCC00000C4
:1000C000DAC00000D8C00000D6C00000D4C00000D4
:1000D000D2C00000D0C00000CEC00000CCC00000E4
:1000E000CAC00000C8C00000C6C00000C4C00000F4
:1000F000C2C00000C0C00000BEC00000BCC0000004
:10010000BAC00000B8C00000B6C00000B4C0000013
:10011000B2C00000B0C00000AEC00000ACC0000023
:10012000AAC00000A8C00000A6C00000A4C0000033
:10013000A2C000006E616E00696E660000407A1019
:10014000F35A00A0724E18090010A5D4E80000E888
:100150007648170000E40B54020000CA9A3B0000E6
:1001600000E1F505000080969800000040420F0075
:100170000000A08601000000102700000000E80336
:10018000000000006400000000000A000000000001
:100190000100000000002C76D888DC674F0823DFC0
:1001A000C1DFAE59E1B1B796E5E3E453C63AE65193
:1001B000997696E8E6C28426EB898C9B62ED407CBA
:1001C0006FFCEFBC9C9F40F2BAA56FA5F490055A56
:1001D0002AF75C936B6CF9676DC11BFCE0E40D477B
:1001E000FEF520E6B500D0ED902E0300943577059E
:1001F0000080841E080000204E0A000000C80C3356
:100200003333330F986E12831141EF8D2114893BE4
:10021000E65516CFFEE6DB18D1844B381BF77C1D64
:10022000901DA4BBE424203284725E228100C9F1B7
:1002300024ECA1E53D2711241FBECFEFD1E8DEBF9E
:10024000CDBF00E00CBF13E0A0E0B2E0E8EBF4E1CA
:1002500000E00BBF02C007900D92A637B107D9F797
:1002600023E0A6E7B3E001C01D92AF37B207E1F784
:10027000F3D00C945A0AC4CE84EA8093BC008091D7
:10028000BC008823E4F7089584E98093BC000895B6
:100290008093BB0084E88093BC008091BC008823DD
:1002A000E4F7089584EC8093BC008091BC0088231F
:1002B000E4F78091BB00089584E88093BC008091AE
:1002C000BC008823E4F78091BB0008958091B900B9
:1002D000887F0895CF93DF9300D01F92CDB7DEB70C
:1002E000CBDF86E9D5DFF2DF883119F080E192E0DB
:1002F00022D280E0CDDFEADF883219F08BE192E094
:100300001AD2C2DFB9DFE2DF883019F086E292E06C
:1003100012D287E9BDDFDADF803419F081E392E0A1
:100320000AD2C0DF8983D2DF803519F08CE392E0F6
:1003300002D2C2DF8A83CADF883519F087E492E0EF
:10034000FAD1A2DF898190E0982F88272A81822B19
:100350009C838B836B817C8180E090E001D220E0E4
:1003600030E040E85BE339D20F900F900F900F9090
:10037000DF91CF9108958BE1D0D182E592E0DBD17E
:100380008CE592E0D8D184E892E0D5D18DE892E076
:10039000D2D182EA92E0CFD187EB92E0CCD18BEC44
:1003A00092E0C9D18DED92E0C6D183EF92E0C3D146
:1003B0008CE592E0C0C10895F89480E096E998D168
:1003C000E9ECF0E080818068808380E092E09093A7
:1003D0007C0380937B0384B1806184B985B18061A3
:1003E00085B984B1806284B985B1806285B98DB1E7
:1003F0008F7E8DB98EB180618EB98DB380618DBBDA
:10040000EAE6F0E080818260808380818160808381
:10041000789480E049C1089580E484B980E090E058
:1004200016C020E425B92FEF30E742E021503040DC
:100430004040E1F700C0000015B82FEF30E742E080
:10044000215030404040E1F700C0000001968A3062
:1004500091053CF314B80895AFDF2FEF80E792E0E9
:10046000215080409040E1F700C0000084DF2FEF72
:1004700080E792E0215080409040E1F700C000000A
:1004800080917703813009F088C0809178038233AE
:1004900059F128F4803359F0813371F079C08433F5
:1004A00009F438C090F1853309F457C071C088E071
:1004B00093E072D760DF6FC08AE892E09F938F93DA
:1004C00058D70F900F90C1E4D0E003C08C2F25D1F6
:1004D0002196CA35D105D4F38AE892E09F938F9391
:1004E00048D70F900F9057C08AE892E09F938F9360
:1004F00040D70F900F90C1E6D0E003C08C2F0DD1F4
:100500002196CB37D105D4F346C08BE892E044D78F
:1005100083DF41C08AE892E09F938F932AD780912E
:100520000E0290910F020F900F90892B49F08FE1EE
:1005300093E032D710920F0210920E02B2D02BC06D
:1005400081E393E029D780EA97E08BD081E090E0C7
:1005500090930F0280930E021EC08AE892E09F9350
:100560008F9307D784E493E0E6D0B4DE9F938F9314
:100570007F936F9385E593E09F938F93FAD68DB722
:100580009EB708960FB6F8949EBF0FBE8DBF03C0EE
:1005900082E693E001D7109277039FEF20E782E095
:1005A000915020408040E1F700C0000069CF1F92C9
:1005B0000F920FB60F9211242F938F939F938DB3A9
:1005C0008F7E8DBB2FEF81EE94E0215080409040D4
:1005D000E1F700C00000809176038F5F809376037F
:1005E00095B180E1892785B98CB380618CBB8DB3CF
:1005F00080618DBB9F918F912F910F900FBE0F90B7
:100600001F9018951F920F920FB60F9211240BB6E0
:100610000F922F933F934F935F936F937F938F939B
:100620009F93AF93BF93EF93FF937ED08093780314
:100630008091780372D081E080937703FF91EF91EE
:10064000BF91AF919F918F917F916F915F914F91EA
:100650003F912F910F900BBE0F900FBE0F901F90E8
:100660001895CF93DF93F894A0E8B0E01C92E1E8EE
:10067000F0E01082CFE6D0E018829093890080935A
:100680008800808188608083808185608083888104
:10069000826088838C9180648C937894DF91CF9171
:1006A0000895109281000895CF93DF93F894E0EBC2
:1006B000F0E01082C1EBD0E01882109270002FEFB2
:1006C000829FC001112464E670E0C4D46093B3003B
:1006D0008081826080838081816080838881856061
:1006E00088838081806880837894DF91CF9108959A
:1006F0009C0140E050E060E271EA87E090E0BDD408
:100700002150310986E08093CA003093CD002093B8
:10071000CC0088E18093C90008959091C80095FFAE
:10072000FCCF8093CE0008958091C8008823E4F721
:100730008091CE000895CF93DF93EC0102C0EDDFEE
:10074000219688818111FBCFDF91CF9108959091FF
:10075000C80095FFFCCF8093CE0080E090E0089524
:10076000E89409C097FB3EF490958095709561954B
:100770007F4F8F4F9F4F9923A9F0F92F96E9BB2701
:100780009395F695879577956795B795F111F8CF7D
:10079000FAF4BB0F11F460FF1BC06F5F7F4F8F4FE8
:1007A0009F4F16C0882311F096E911C0772321F0DE
:1007B0009EE8872F762F05C0662371F096E8862F76
:1007C00070E060E02AF09A95660F771F881FDAF7CD
:1007D000880F9695879597F908950BD078C069D0C2
:1007E00028F06ED018F0952309F05AC05FC011248C
:1007F000A2C07ED0A0F3959FD1F3950F50E0551F76
:10080000629FF001729FBB27F00DB11D639FAA2765
:10081000F00DB11DAA1F649F6627B00DA11D661FB4
:10082000829F2227B00DA11D621F739FB00DA11DD5
:10083000621F839FA00D611D221F749F3327A00D8F
:10084000611D231F849F600D211D822F762F6A2F2B
:1008500011249F5750408AF0E1F088234AF0EE0FB0
:10086000FF1FBB1F661F771F881F91505040A9F7BD
:100870009E3F510570F014C05EC05F3FECF3983EA0
:10088000DCF3869577956795B795F795E7959F5F24
:10089000C1F7FE2B880F911D9695879597F90895BE
:1008A00097F99F6780E870E060E008959FEF80EC23
:1008B000089500240A9416161706180609060895C6
:1008C00000240A9412161306140605060895092E2C
:1008D0000394000C11F4882352F0BB0F40F4BF2B9B
:1008E00011F460FF04C06F5F7F4F8F4F9F4F0895DB
:1008F00057FD9058440F551F59F05F3F71F04795D1
:10090000880F97FB991F61F09F3F79F087950895B5
:10091000121613061406551FF2CF4695F1DF08C0D4
:10092000161617061806991FF1CF869571056105F1
:1009300008940895E894BB2766277727CB0197F999
:1009400008952F923F924F925F926F927F928F9273
:100950009F92AF92BF92CF92DF92EF92FF920F934E
:100960001F93CF93DF93CDB7DEB760970FB6F894A0
:10097000DEBF0FBECDBF7C011B016A01FC011782E7
:100980001682838181FF2AC39E012F5F3F4F390169
:10099000F7019381F10193FD859193FF81911F01EF
:1009A000882309F417C3853239F493FD859193FFA9
:1009B00081911F01853231F4B70190E09ED4560138
:1009C0006501E6CF10E0512C912CFFE1F915D8F02C
:1009D0008B3279F038F4803279F08332A1F4F92D3A
:1009E000F0612EC08D3261F0803369F4292D2160D1
:1009F0002DC0392D3260932E892D8460982E2AC007
:100A0000E92DE86015C097FC2DC020ED280F2A3095
:100A100088F496FE06C03AE0139F200D1124122F91
:100A200019C08AE0589E200D1124522EE92DE06253
:100A30009E2E10C08E3231F496FCCCC2F92DF0649B
:100A40009F2E08C08C3621F4292D2068922E02C0DA
:100A5000883641F4F10193FD859193FF81911F0147
:100A60008111B3CF9BEB980F933020F4992D9061B7
:100A7000805E07C09BE9980F933008F059C1992D0B
:100A80009F7E96FF16E09F73992E853619F4906429
:100A9000992E08C0863621F4392F3068932E02C073
:100AA0001111115097FE07C01C3350F44424439495
:100AB000410E27E00BC0183038F027E017E005C0E2
:100AC00027E09CE3492E02C0212F412C560184E0EF
:100AD000A80EB11CF6016081718182819381042D81
:100AE000A3011DD36C01F981FC87F0FF02C0F3FF65
:100AF00006C091FC06C092FE06C000E205C00DE2F1
:100B000003C00BE201C000E08C858C7019F001116C
:100B100043C280C297FE10C04C0CFC85F4FF04C099
:100B20008A81813309F44A94141474F528E0241559
:100B300078F588E0482E2CC096FC2AC0812F90E0E2
:100B40008C159D059CF03CEFC3163FEFD30674F067
:100B5000892D8068982E0AC0E2E0F0E0EC0FFD1FBE
:100B6000E10FF11D8081803319F411501111F4CF80
:100B700097FE0EC044244394410E812F90E0C81686
:100B8000D9062CF41C1904C04424439401C010E07D
:100B900097FE06C01C141D0434F4C601019605C05E
:100BA00085E090E002C081E090E001110196112300
:100BB00031F0212F30E02F5F3F4F820F931F252D03
:100BC00030E08217930714F4581A01C0512C892D74
:100BD000897041F4552031F0B70180E290E08DD367
:100BE0005A94F8CF002321F0B701802F90E085D3ED
:100BF00093FC08C0552031F0B70180E390E07DD32D
:100C00005A94F8CF97FE4AC04601D7FE02C0812C05
:100C1000912CC60188199909F301E80FF91FFE8785
:100C2000ED87960124193109388B2F87012F10E0A9
:100C30001195019511093FEF8316930621F4B70131
:100C40008EE290E05AD3C814D9044CF08F8598896D
:100C50008815990524F4ED85FE85818101C080E326
:100C6000F1E08F1A91082D853E852F5F3F4F3E871B
:100C70002D878016910624F0B70190E03ED3DBCF9C
:100C8000C814D90441F49A81963320F4953319F4A9
:100C90003C8534FF81E3B70190E048C08A8181330D
:100CA00019F09C859F7E9C87B70190E026D3111197
:100CB00005C094FC16C085E690E015C0B7018EE231
:100CC00090E01BD31E5F82E001E0080FF301E80F04
:100CD000F11D8081B70190E010D3802F0113F4CF74
:100CE000E8CF85E490E0B70108D3D7FC06C0C11473
:100CF000D10441F4EC85E4FF05C0D194C194D1083E
:100D00008DE201C08BE2B70190E0F7D280E32AE0E8
:100D1000C216D1042CF08F5FFAE0CF1AD108F7CFBA
:100D2000B70190E0EAD2B701C601C096E6D249C148
:100D3000833631F0833779F0833509F052C01FC014
:100D4000560132E0A30EB11CF6018081898301E0D7
:100D500010E0630111C05601F2E0AF0EB11CF601C4
:100D6000C080D18096FE03C0612F70E002C06FEF9B
:100D70007FEFC601B7D28C01F92DFF7713C0560162
:100D800022E0A20EB11CF601C080D18096FE03C005
:100D9000612F70E002C06FEF7FEFC60198D28C0127
:100DA000F92DF0689F2EF3FD18C0852D90E00817EF
:100DB000190798F4B70180E290E09FD25A94F5CFDA
:100DC000F60197FC859197FE81916F01B70190E044
:100DD00094D251105A94015011090115110581F74F
:100DE000F0C0843611F0893659F5560197FE09C0D6
:100DF00024E0A20EB11CF601608171818281938191
:100E00000AC0F2E0AF0EB11CF60160817181072EBD
:100E1000000C880B990BF92DFF769F2E97FF09C0C8
:100E200090958095709561957F4F8F4F9F4FF0689B
:100E30009F2E2AE030E0A301DFD2C82EC6183EC0A4
:100E4000092D853721F40F7E2AE030E01DC0097F8F
:100E50008F3691F018F4883559F0BCC0803719F0FE
:100E6000883711F0B7C0006104FF09C0046007C0F3
:100E700094FE08C0066006C028E030E005C020E10E
:100E800030E002C020E132E0560107FF09C084E0F3
:100E9000A80EB11CF601608171818281938108C026
:100EA000F2E0AF0EB11CF6016081718180E090E04C
:100EB000A301A2D2C82EC6180F77902E96FE0BC0A3
:100EC000092D0E7FC11650F494FE0AC092FC08C092
:100ED000092D0E7E05C0DC2C092D03C0DC2C01C0C1
:100EE000D12E04FF0DC0FE01EC0DF11D8081803379
:100EF00011F4097E09C002FF06C0D394D39404C044
:100F0000802F867809F0D39403FD10C000FF06C03F
:100F10001C2DD51478F4150D1D190CC0D51450F4E2
:100F2000B70180E290E0E9D1D394F8CFD51410F462
:100F30005D1801C0512C04FF0FC0B70180E390E0A1
:100F4000DCD102FF16C001FD03C088E790E002C0BB
:100F500088E590E0B7010CC0802F867851F001FF42
:100F600002C08BE201C080E207FD8DE2B70190E094
:100F7000C4D1C11630F4B70180E390E0BED1115066
:100F8000F8CFCA94F301EC0DF11D8081B70190E018
:100F9000B4D1C110F6CF15C0F4E0F51550F584E0DA
:100FA000581A93FE1EC0011125C02C8523FF27C0AF
:100FB00004E311E0392D3071932EF80184918111F1
:100FC00021C0552009F4FCCCB70180E290E095D116
:100FD0005A94F7CFF7018681978123C08FEF9FEF57
:100FE00020C0B70180E290E088D15A945110F9CF27
:100FF000DACF512CB701802F90E07FD1D6CF08E314
:1010000011E0D8CF91108052B70190E076D10F5FF8
:101010001F4FD3CF23E0251510F483E0C1CF512C0F
:10102000C4CF60960FB6F894DEBF0FBECDBFDF9180
:10103000CF911F910F91FF90EF90DF90CF90BF90D5
:10104000AF909F908F907F906F905F904F903F9068
:101050002F90089597FB072E16F4009406D077FD85
:1010600008D027D007FC05D03EF4909581959F4F7E
:101070000895709561957F4F0895052E97FB16F49E
:1010800000940FD057FD05D028D007FC02D046F4BD
:1010900008C050954095309521953F4F4F4F5F4F79
:1010A000089590958095709561957F4F8F4F9F4FD4
:1010B0000895AA1BBB1B51E107C0AA1FBB1FA6179F
:1010C000B70710F0A61BB70B881F991F5A95A9F7F1
:1010D00080959095BC01CD010895A1E21A2EAA1B1E
:1010E000BB1BFD010DC0AA1FBB1FEE1FFF1FA217D8
:1010F000B307E407F50720F0A21BB30BE40BF50BD5
:10110000661F771F881F991F1A9469F7609570955D
:10111000809590959B01AC01BD01CF0108952830C9
:1011200008F027E03327DA01990F311D87FD916020
:1011300000966105710539F432602E5F3D9330E30E
:101140002A95E1F708959F3F30F0803871056105D9
:1011500009F03C5F3C5F3D93913008F08068911D41
:10116000DF93CF931F930F93FF92EF92192F987FE6
:101170009695E92F96959695E90FFF27EA56FE4F2B
:1011800099273327EE24FF24A701E701059008944F
:10119000079428F4360FE71EF81E491F511D660FED
:1011A000771F881F991F0694A1F70590079428F4CC
:1011B000E70EF81E491F561FC11D770F881F991F84
:1011C000661F0694A1F70590079428F4F80E491FAE
:1011D000561FC71FD11D880F991F661F771F0694C2
:1011E000A1F70590079420F4490F561FC71FD81F79
:1011F000990F661F771F881F0694A9F78491109591
:10120000177041F0D695C79557954795F794E79491
:101210001A95C1F7ECE3F1E06894159015913591BA
:101220006591959105907FE27395E118F10A430B62
:10123000560BC90BD009C0F7E10CF11E431F561F16
:10124000C91FD01D7EF4703311F48A95E6CFE8945F
:10125000015030F0080F0AF40027021708F4202F7D
:101260002395022F7A3328F079E37D932A95E9F7C5
:1012700010C07D932A9589F60694979567953795C2
:1012800017951794E118F10A430B560BC90BD009B7
:1012900098F023957E9173957A3308F070E37C93F0
:1012A0002013B8F77E9170617D9330F0839571E3E0
:1012B0007D9370E32A95E1F71124EF90FF900F9151
:1012C0001F91CF91DF91992787FD90950895FC019B
:1012D0000590615070400110D8F7809590958E0F61
:1012E0009F1F0895FC016150704001900110D8F7D4
:1012F000809590958E0F9F1F08950F931F93CF9306
:10130000DF93FB01238121FD03C08FEF9FEF2CC0F2
:1013100022FF16C046815781248135814217530729
:1013200044F4A081B1819D012F5F3F4F3183208321
:101330008C93268137812F5F3F4F3783268314C0DC
:101340008B01EC01FB010084F185E02D1995892BBF
:10135000E1F6D80116968D919C91179701961796F4
:101360009C938E931697CE01DF91CF911F910F9191
:101370000895CF93DF93CDB7DEB7AE014A5F5F4FDD
:10138000FA0161917191AF0180917B0390917C038F
:10139000D8DADF91CF9108950F931F93CF93DF9306
:1013A000E0917B03F0917C03238121FF1BC08C0122
:1013B000D0E0C0E0F80181918F0160917B037091D2
:1013C0007C03DB011896ED91FC911997882331F08D
:1013D0001995892B79F3DFEFCFEFECCF8AE01995E0
:1013E000892B19F08FEF9FEF02C08D2F9C2FDF917B
:1013F000CF911F910F910895FA01AA27283051F13A
:10140000203181F1E8946F936E7F6E5F7F4F8F4F35
:101410009F4FAF4FB1E03ED0B4E03CD0670F781F94
:10142000891F9A1FA11D680F791F8A1F911DA11D79
:101430006A0F711D811D911DA11D20D009F46894B2
:101440003F912AE0269F11243019305D3193DEF65A
:10145000CF010895462F4770405D4193B3E00FD010
:10146000C9F7F6CF462F4F70405D4A3318F0495DFB
:1014700031FD4052419302D0A9F7EACFB4E0A695DE
:101480009795879577956795BA95C9F70097610500
:10149000710508959B01AC010A2E06945795479556
:1014A00037952795BA95C9F7620F731F841F951F4B
:0814B000A01D0895F894FFCF80
:1014B8000000000300000000A70300000000010076
:1014C8004572726F722031380A0D004572726F7260
:1014D8002032380A0D004572726F722030380A0DBA
:1014E800004572726F722034300A0D004572726FB7
:1014F800722035300A0D004572726F722035380A35
:101508000D005B303B33323B34306D002D2D2D2DDB
:101518002D2D2D2D2D2D2D2D2D2D2D2D2D2D2D2DF3
:101528002D2D2D2D2D2D2D2D2D2D2D2D2D2D2D2DE3
:101538002D0A0D004D454E553A200A0D0030202D3C
:10154800204B6F6E65632070726F6772616D750AEC
:101558000D0031202D2056656C6B6120616265633A
:10156800656461200A0D0032202D204D616C6120D8
:1015780061626563656461200A0D0033202D204295
:101588006C696B6E65204C4544200A0D0034202D93
:101598002047656E65726F76616E692032487A20E1
:1015A8000A0D0035202D204374656E69207465701E
:1015B8006C6F7479200A0D000D0A204B6F6E6563FD
:1015C8002070726F6772616D752E2E2E200D00537C
:1015D800746F702067656E65726F76616E69200D35
:1015E8000053746172742067656E65726F76616E00
:1015F80069200D004D6572656E69207465706C6FA9
:1016080074793A200025662043656C736961200A65
:101618000D000D0A537061746E6120766F6C626103
:061628002E2E200D000033
:00000001FF
